:100000000C948B000C94AA000C94AA000C94AA00E7
:100010000C94AA000C94AA000C94AA000C94AA00B8
:100020000C94AA000C94AA000C94AA000C94AA00A8
:100030000C94AA000C94AA010C94AA000C94AA0097
:100040000C94AA000C94AA000C94AA000C94AA0088
:100050000C94AA000C94AA000C94AA000C94AA0078
:100060000C94AA000C94AA000C94AA000C94AA0068
:100070000C94AA000C94AA000C94AA000C94AA0058
:100080000C94AA000C94AA000C94AA001F031C0351
:100090001C031C031C031C031C031C031C031C0368
:1000A0001C031C031C031C031C031C031C031C0358
:1000B0001C031C031C031C031C031C031C031C0348
:1000C0001C031C031C031C031C031C031C031C0338
:1000D0001C0318031C031C031C031C031C031C032C
:1000E00010031C031C031C031C031C031403DC026D
:1000F000E002E402E802EC02F002F402F802FC0280
:100100001C031C031C031C031C031C031C03000313
:10011000040308030C0311241FBECFEFD0E4DEBF9D
:10012000CDBF11E0A0E0B1E0E0EFF7E000E00BBFF1
:1001300002C007900D92A431B107D9F711E0A4E1F4
:10014000B1E001C01D92AF32B107E1F70E94230375
:100150000C94F6030C94000040E050E00CC000004A
:100160002F5F3F4F02C020E030E0273063E03607CA
:10017000B4F34F5F5F4F48175907ACF308951198D8
:100180008BB9129A0000129882E090E00E94AC00B5
:10019000089581E00E94BF000895813120F48158C4
:1001A0000E94BF00089581550E94BF00089584E613
:1001B00090E00E94AC0088E30E94BF0086E00E94AD
:1001C000BF008FE00E94BF0081E00E94BF008AE074
:1001D00090E00E94AC000895119A8BB9129A000029
:1001E000129881E090E00E94AC000895EF92FF9297
:1001F0000F931F93CF93DF93182FEB010E94C90039
:100200000EC001E0010F812F0E94CD007E018FEF13
:10021000E81AF80A88810E94EC00102FE701888113
:100220008111EFCFDF91CF911F910F91FF90EF9050
:100230000895CF93C82F8A3019F48DE00E941901D8
:100240009091C00095FFFCCFC093C60080E090E085
:10025000CF910895CF93DF93029718F4C1E0D0E0D7
:1002600002C0C0E0D0E0C130D10539F481E00E9485
:10027000CD00809100010E94EC00CE01DF91CF9172
:1002800008950F931F93CF93DF93B62FA72FF82FC7
:10029000E92F022F132FD42FC52F04C0062F172F9D
:1002A000D82FC92F6B2F7A2F8F2F9E2F202F312FD2
:1002B0004D2F5C2F0E94CB03B02FA12FFD2FEC2FD1
:1002C000611571058105910549F7602F712F8D2FFB
:1002D0009C2FDF91CF911F910F91089560930F0193
:1002E0007093100180931101909312016093140197
:1002F00070931501809316019093170108958BE078
:10030000809381008DE790E090938900809388002E
:1003100082E080936F00109285001092840080919B
:100320000F0190911001A0911101B09112018093E1
:10033000140190931501A0931601B09317018FB784
:1003400080688FBF089510928100089581E08093A6
:10035000180108951F920F920FB60F9211240BB639
:100360000F922F933F934F935F936F937F938F934E
:100370009F93AF93BF93EF93FF938091140190915C
:100380001501A0911601B09117010197A109B109BA
:100390008093140190931501A0931601B093170157
:1003A000892B8A2B8B2B91F40E94A60180910F013F
:1003B00090911001A0911101B0911201809314014C
:1003C00090931501A0931601B0931701FF91EF913F
:1003D000BF91AF919F918F917F916F915F914F915D
:1003E0003F912F910F900BBE0F900FBE0F901F905B
:1003F0001895442349F021E030E002C0220F331F5A
:100400006A95E2F7822B089521E030E002C0220FC6
:10041000331F6A95E2F720958223089521E030E0AA
:1004200002C0220F331F6A95E2F78223089540E04D
:1004300064E08FEF0E94F90188B9000086B160E0A6
:1004400080950E940E02811180C086B161E0809586
:100450000E940E0281117BC086B162E080950E94ED
:100460000E02811176C086B163E080950E940E0273
:10047000811171C040E065E08FEF0E94F90188B9F9
:10048000000086B160E080950E940E02811165C077
:1004900086B161E080950E940E02811160C086B134
:1004A00062E080950E940E0281115BC086B163E01C
:1004B00080950E940E02811156C040E066E08FEFE9
:1004C0000E94F90188B9000086B160E080950E9421
:1004D0000E0281114AC086B161E080950E940E0231
:1004E000811145C086B162E080950E940E028111A3
:1004F00040C086B163E080950E940E0281113BC02E
:1005000040E067E08FEF0E94F90188B9000086B1F2
:1005100060E080950E940E0281112FC086B161E0DB
:1005200080950E940E0281112AC086B162E08095FA
:100530000E940E02811125C086B163E080950E9461
:100540000E028823F9F084E4089581E3089584E39A
:10055000089587E308958AE2089582E3089585E384
:10056000089588E3089580E3089583E3089586E37A
:10057000089589E3089583E2089581E4089582E46B
:10058000089583E40895CF93DF93029718F4C1E0B0
:10059000D0E002C0C0E0D0E0C130D10509F04FC0CA
:1005A0000E94170290E08534910508F045C0FC01D7
:1005B000EA5BFF4F0C94ED0381E3809300013FC0A1
:1005C00082E3809300013BC083E38093000137C046
:1005D00084E38093000133C085E3809300012FC042
:1005E00086E3809300012BC087E38093000127C03E
:1005F00088E38093000123C089E3809300011FC03A
:1006000081E4809300011BC082E48093000117C045
:1006100083E48093000113C084E4809300010FC041
:100620008AE2809300010BC080E38093000107C041
:1006300083E28093000103C080E280930001CE0139
:10064000DF91CF910895CF93DF9300D000D0CDB745
:10065000DEB78FEF81B912B88AB91BB880EF87B9BE
:100660008FE088B9A4E2B1E0BA83A983E9E1F1E0BF
:10067000FC83EB831C9241E050E060E070E0119657
:100680004D935D936D937C93149715964D935D9365
:100690006D937C93189783EC92E01A969C938E93BB
:1006A00019971082418352836383748345835683F1
:1006B000678370878AE291E09287818701E010E08A
:1006C000812C912C5401839414C0F801EE0FFF1F6C
:1006D000EC0FFD1F0180F281E02D218132814381E9
:1006E0005481C501B4010E9441014B015C010F5FBF
:1006F0001F4F0230110548F30E94D700C501B40115
:100700000E946E010E947F01E12CF12C39C0F7019B
:10071000EE0FFF1FEC0FFD1F01811281D80115960E
:100720004D915D916D917C91189711968D919D9150
:100730000D90BC91A02D481759076A077B0781F4DB
:10074000D8011996ED91FC911A978C91992787FD04
:1007500090950995F801808315821682178210867C
:10076000F80185819681A781B085880D991DAA1D04
:10077000BB1D85839683A783B087FFEFEF1AFF0A1F
:1007800082E0E816F10418F2809118018823E1F361
:1007900010921801B9CFA1E21A2EAA1BBB1BFD01B2
:1007A0000DC0AA1FBB1FEE1FFF1FA217B307E40750
:1007B000F50720F0A21BB30BE40BF50B661F771FA8
:1007C000881F991F1A9469F7609570958095909588
:1007D0009B01AC01BD01CF010895EE0FFF1F002466
:1007E000001C0BBE0790F691E02D0994F894FFCF02
:1007F00020000000020000000019010000000001BC
:0408000000000000F4
:00000001FF
